:040000008A11FB2F37
:100F6C00F000831203130C1EBC2FBD2FB72F70087B
:100F7C00990083160313981CC42FC52FBF2F08008C
:100F8C00831603131815813099001812831203135A
:100F9C0098178316031398168312031318128316CB
:100FAC0003131813071307128312031307160800F1
:100FBC008A11C6278A1141308A11B6278A110B3043
:100FCC00F3002630F2005D30F100F10BEB2FF20B49
:100FDC00EB2FF30BEB2FF22F0130F4070318F50A6C
:100FEC000030F507E12F8A110028F401F501830187
:040FFC008A11DE2F49
:04400E00D220FF3E7F
:00000001FF
